{
    "contractName": "DSCEngine",
    "abi": [
        {
            "inputs": [
                {
                    "internalType": "address[]",
                    "name": "tokenAddresses",
                    "type": "address[]"
                },
                {
                    "internalType": "address[]",
                    "name": "priceFeedAddresses",
                    "type": "address[]"
                },
                {
                    "internalType": "address",
                    "name": "dscAddress",
                    "type": "address"
                }
            ],
            "stateMutability": "nonpayable",
            "type": "constructor"
        },
        {
            "inputs": [],
            "name": "DSCEngine__AmountMustBeMoreThanZero",
            "type": "error"
        },
        {
            "inputs": [],
            "name": "DSCEngine__BurnAmountExceedsBalance",
            "type": "error"
        },
        {
            "inputs": [],
            "name": "DSCEngine__NotZeroAddress",
            "type": "error"
        },
        {
            "inputs": [],
            "name": "DSCEngine__TokenAddressesAndPriceFeedAddressesAmountsDontMatch",
            "type": "error"
        },
        {
            "inputs": [
                {
                    "internalType": "address",
                    "name": "token",
                    "type": "address"
                }
            ],
            "name": "DSCEngine__TokenNotAllowed",
            "type": "error"
        },
        {
            "inputs": [],
            "name": "bureDsc",
            "outputs": [],
            "stateMutability": "nonpayable",
            "type": "function"
        },
        {
            "inputs": [
                {
                    "internalType": "address",
                    "name": "tokenCollateralAddress",
                    "type": "address"
                },
                {
                    "internalType": "uint256",
                    "name": "amountCollateral",
                    "type": "uint256"
                }
            ],
            "name": "depostCollateral",
            "outputs": [],
            "stateMutability": "nonpayable",
            "type": "function"
        },
        {
            "inputs": [],
            "name": "depostCollateralAndMintDsc",
            "outputs": [],
            "stateMutability": "nonpayable",
            "type": "function"
        },
        {
            "inputs": [],
            "name": "getHealthFactory",
            "outputs": [],
            "stateMutability": "nonpayable",
            "type": "function"
        },
        {
            "inputs": [
                {
                    "internalType": "address",
                    "name": "collateral",
                    "type": "address"
                },
                {
                    "internalType": "address",
                    "name": "user",
                    "type": "address"
                },
                {
                    "internalType": "uint256",
                    "name": "debtToCover",
                    "type": "uint256"
                }
            ],
            "name": "liquidate",
            "outputs": [],
            "stateMutability": "nonpayable",
            "type": "function"
        },
        {
            "inputs": [],
            "name": "minDsc",
            "outputs": [],
            "stateMutability": "nonpayable",
            "type": "function"
        },
        {
            "inputs": [],
            "name": "redeemCollateral",
            "outputs": [],
            "stateMutability": "nonpayable",
            "type": "function"
        },
        {
            "inputs": [],
            "name": "redeemCollateralFroDec",
            "outputs": [],
            "stateMutability": "nonpayable",
            "type": "function"
        }
    ],
    "bytecode": "608060405234801561001057600080fd5b5060405161055b38038061055b83398101604081905261002f9161023b565b6001600055815183511461005657604051631d8bb3e760e11b815260040160405180910390fd5b60005b835181101561013f57828181518110610074576100746102ae565b602002602001015160026000868481518110610092576100926102ae565b60200260200101516001600160a01b03166001600160a01b0316815260200190815260200160002060006101000a8154816001600160a01b0302191690836001600160a01b0316021790555060058482815181106100f2576100f26102ae565b60209081029190910181015182546001810184556000938452919092200180546001600160a01b0319166001600160a01b0390921691909117905580610137816102c4565b915050610059565b50600180546001600160a01b0319166001600160a01b0392909216919091179055506102eb9050565b634e487b7160e01b600052604160045260246000fd5b80516001600160a01b038116811461019557600080fd5b919050565b600082601f8301126101ab57600080fd5b815160206001600160401b03808311156101c7576101c7610168565b8260051b604051601f19603f830116810181811084821117156101ec576101ec610168565b60405293845285810183019383810192508785111561020a57600080fd5b83870191505b84821015610230576102218261017e565b83529183019190830190610210565b979650505050505050565b60008060006060848603121561025057600080fd5b83516001600160401b038082111561026757600080fd5b6102738783880161019a565b9450602086015191508082111561028957600080fd5b506102968682870161019a565b9250506102a56040850161017e565b90509250925092565b634e487b7160e01b600052603260045260246000fd5b6000600182016102e457634e487b7160e01b600052601160045260246000fd5b5060010190565b610261806102fa6000396000f3fe608060405234801561001057600080fd5b50600436106100885760003560e01c80637d4e77431161005b5780637d4e77431461008d578063a65344701461008d578063cc76755f1461008d578063e9a19e461461008d57600080fd5b8063136346a11461008d5780631574771d1461008f57806326c01303146100a25780633ef15e361461008d575b600080fd5b005b61008d61009d3660046101c5565b6100b5565b61008d6100b03660046101ef565b610139565b80806000036100d7576040516309556c0960e01b815260040160405180910390fd5b6001600160a01b038084166000908152600260205260409020548491166101215760405163cf39359560e01b81526001600160a01b03821660048201526024015b60405180910390fd5b610129610150565b6101336001600055565b50505050565b610141610150565b61014b6001600055565b505050565b6002600054036101a25760405162461bcd60e51b815260206004820152601f60248201527f5265656e7472616e637947756172643a207265656e7472616e742063616c6c006044820152606401610118565b6002600055565b80356001600160a01b03811681146101c057600080fd5b919050565b600080604083850312156101d857600080fd5b6101e1836101a9565b946020939093013593505050565b60008060006060848603121561020457600080fd5b61020d846101a9565b925061021b602085016101a9565b915060408401359050925092509256fea26469706673582212200bf1be63e0225d2b9a91e3ccc80535c34d9bc169862ce990e9beb235d815056764736f6c63430008130033",
    "sourcePath": "/Users/touqeershah/Movies/Personal_Space/stable-coin/src/core/DSCEngine.sol",
    "compiler": {
        "name": "solc",
        "version": "0.8.19+commit.7dd6d404"
    },
    "functionHashes": {
        "bureDsc()": "cc76755f",
        "depostCollateral(address,uint256)": "1574771d",
        "depostCollateralAndMintDsc()": "e9a19e46",
        "getHealthFactory()": "7d4e7743",
        "liquidate(address,address,uint256)": "26c01303",
        "minDsc()": "136346a1",
        "redeemCollateral()": "a6534470",
        "redeemCollateralFroDec()": "3ef15e36"
    },
    "gasEstimates": {
        "creation": {
            "codeDepositCost": "121800",
            "executionCost": "infinite",
            "totalCost": "infinite"
        },
        "external": {
            "bureDsc()": "164",
            "depostCollateral(address,uint256)": "31867",
            "depostCollateralAndMintDsc()": "186",
            "getHealthFactory()": "120",
            "liquidate(address,address,uint256)": "infinite",
            "minDsc()": "121",
            "redeemCollateral()": "142",
            "redeemCollateralFroDec()": "187"
        }
    }
}